{
  "_format": "hh-sol-artifact-1",
  "contractName": "LogPoseIDO",
  "sourceName": "contracts/LogPoseIDO.sol",
  "abi": [
    {
      "inputs": [
        {
          "internalType": "address",
          "name": "_lptToken",
          "type": "address"
        },
        {
          "internalType": "address",
          "name": "_pusdToken",
          "type": "address"
        },
        {
          "internalType": "uint256",
          "name": "_rate",
          "type": "uint256"
        },
        {
          "internalType": "uint256",
          "name": "_totalTokensForSale",
          "type": "uint256"
        }
      ],
      "stateMutability": "nonpayable",
      "type": "constructor"
    },
    {
      "inputs": [
        {
          "internalType": "address",
          "name": "owner",
          "type": "address"
        }
      ],
      "name": "OwnableInvalidOwner",
      "type": "error"
    },
    {
      "inputs": [
        {
          "internalType": "address",
          "name": "account",
          "type": "address"
        }
      ],
      "name": "OwnableUnauthorizedAccount",
      "type": "error"
    },
    {
      "anonymous": false,
      "inputs": [
        {
          "indexed": true,
          "internalType": "address",
          "name": "previousOwner",
          "type": "address"
        },
        {
          "indexed": true,
          "internalType": "address",
          "name": "newOwner",
          "type": "address"
        }
      ],
      "name": "OwnershipTransferred",
      "type": "event"
    },
    {
      "anonymous": false,
      "inputs": [
        {
          "indexed": true,
          "internalType": "address",
          "name": "to",
          "type": "address"
        },
        {
          "indexed": false,
          "internalType": "uint256",
          "name": "amount",
          "type": "uint256"
        }
      ],
      "name": "PaymentsWithdrawn",
      "type": "event"
    },
    {
      "anonymous": false,
      "inputs": [
        {
          "indexed": false,
          "internalType": "uint256",
          "name": "oldRate",
          "type": "uint256"
        },
        {
          "indexed": false,
          "internalType": "uint256",
          "name": "newRate",
          "type": "uint256"
        }
      ],
      "name": "RateUpdated",
      "type": "event"
    },
    {
      "anonymous": false,
      "inputs": [
        {
          "indexed": true,
          "internalType": "address",
          "name": "buyer",
          "type": "address"
        },
        {
          "indexed": false,
          "internalType": "uint256",
          "name": "amountPUSD",
          "type": "uint256"
        },
        {
          "indexed": false,
          "internalType": "uint256",
          "name": "amountLPT",
          "type": "uint256"
        }
      ],
      "name": "TokensPurchased",
      "type": "event"
    },
    {
      "anonymous": false,
      "inputs": [
        {
          "indexed": true,
          "internalType": "address",
          "name": "to",
          "type": "address"
        },
        {
          "indexed": false,
          "internalType": "uint256",
          "name": "amount",
          "type": "uint256"
        }
      ],
      "name": "TokensWithdrawn",
      "type": "event"
    },
    {
      "inputs": [
        {
          "internalType": "uint256",
          "name": "amountPUSD",
          "type": "uint256"
        }
      ],
      "name": "buyTokens",
      "outputs": [],
      "stateMutability": "nonpayable",
      "type": "function"
    },
    {
      "inputs": [],
      "name": "lptToken",
      "outputs": [
        {
          "internalType": "contract IERC20",
          "name": "",
          "type": "address"
        }
      ],
      "stateMutability": "view",
      "type": "function"
    },
    {
      "inputs": [],
      "name": "owner",
      "outputs": [
        {
          "internalType": "address",
          "name": "",
          "type": "address"
        }
      ],
      "stateMutability": "view",
      "type": "function"
    },
    {
      "inputs": [],
      "name": "pusdToken",
      "outputs": [
        {
          "internalType": "contract IERC20",
          "name": "",
          "type": "address"
        }
      ],
      "stateMutability": "view",
      "type": "function"
    },
    {
      "inputs": [],
      "name": "rate",
      "outputs": [
        {
          "internalType": "uint256",
          "name": "",
          "type": "uint256"
        }
      ],
      "stateMutability": "view",
      "type": "function"
    },
    {
      "inputs": [],
      "name": "renounceOwnership",
      "outputs": [],
      "stateMutability": "nonpayable",
      "type": "function"
    },
    {
      "inputs": [
        {
          "internalType": "uint256",
          "name": "newRate",
          "type": "uint256"
        }
      ],
      "name": "setRate",
      "outputs": [],
      "stateMutability": "nonpayable",
      "type": "function"
    },
    {
      "inputs": [],
      "name": "tokensSold",
      "outputs": [
        {
          "internalType": "uint256",
          "name": "",
          "type": "uint256"
        }
      ],
      "stateMutability": "view",
      "type": "function"
    },
    {
      "inputs": [],
      "name": "totalTokensForSale",
      "outputs": [
        {
          "internalType": "uint256",
          "name": "",
          "type": "uint256"
        }
      ],
      "stateMutability": "view",
      "type": "function"
    },
    {
      "inputs": [
        {
          "internalType": "address",
          "name": "newOwner",
          "type": "address"
        }
      ],
      "name": "transferOwnership",
      "outputs": [],
      "stateMutability": "nonpayable",
      "type": "function"
    },
    {
      "inputs": [
        {
          "internalType": "uint256",
          "name": "amount",
          "type": "uint256"
        }
      ],
      "name": "withdrawLPT",
      "outputs": [],
      "stateMutability": "nonpayable",
      "type": "function"
    },
    {
      "inputs": [
        {
          "internalType": "uint256",
          "name": "amount",
          "type": "uint256"
        }
      ],
      "name": "withdrawPUSD",
      "outputs": [],
      "stateMutability": "nonpayable",
      "type": "function"
    }
  ],
  "bytecode": "0x60803461020157601f610c1838819003918201601f19168301916001600160401b0383118484101761020657808492608094604052833981010312610201576100478161021c565b906100546020820161021c565b606060408301519201519233156101eb5760008054336001600160a01b0319821681178355604051939290916001600160a01b0316907f8be0079c531659141344cd1fd0a4f28419497f9722a3daafe3b4186f6b6457e09080a36001600160a01b031690811515806101d9575b156101975750821561015f5783156101105760018060a01b0319600154161760015560018060a01b031660018060a01b031960025416176002556003556004556040516109e790816102318239f35b60405162461bcd60e51b815260206004820152602160248201527f546f74616c20746f6b656e7320666f722073616c65206d757374206265203e206044820152600360fc1b6064820152608490fd5b60405162461bcd60e51b815260206004820152601060248201526f052617465206d757374206265203e20360841b6044820152606490fd5b62461bcd60e51b815260206004820152601560248201527f496e76616c696420746f6b656e206164647265737300000000000000000000006044820152606490fd5b506001600160a01b03831615156100c1565b631e4fbdf760e01b600052600060045260246000fd5b600080fd5b634e487b7160e01b600052604160045260246000fd5b51906001600160a01b03821682036102015756fe608080604052600436101561001357600080fd5b60003560e01c9081632c4e722e146109105750806334fcf4371461087f5780633610724e146104d2578063518ab2a8146104b457806360219c7b14610496578063715018a61461043d5780637f7614b4146104145780638da5cb5b146103eb578063edf62cf1146103c2578063f2fde38b14610335578063fc370f83146102345763fe2ab88c146100a357600080fd5b3461022f57602036600319011261022f576004356100bf610988565b60045460055481039081116102195781116101d4576001546000805460405163a9059cbb60e01b81526001600160a01b03918216600482015260248101859052926020928492604492849291165af19081156101c857600091610199575b501561015e576000546040519182526001600160a01b0316907f6352c5382c4a4578e712449ca65e83cdb392d045dfcf1cad9615189db2da244b90602090a2005b60405162461bcd60e51b815260206004820152601360248201527215da5d1a191c985dc81314150819985a5b1959606a1b6044820152606490fd5b6101bb915060203d6020116101c1575b6101b38183610938565b810190610970565b3861011d565b503d6101a9565b6040513d6000823e3d90fd5b60405162461bcd60e51b815260206004820152601960248201527f496e76616c6964207769746864726177616c20616d6f756e74000000000000006044820152606490fd5b634e487b7160e01b600052601160045260246000fd5b600080fd5b3461022f57602036600319011261022f57600435610250610988565b6002546000805460405163a9059cbb60e01b81526001600160a01b03918216600482015260248101859052926020928492604492849291165af19081156101c857600091610316575b50156102da576000546040519182526001600160a01b0316907fd8102a2d73a808d6664a3116966c123291d07ec500edf12e27ee919d7b81bd3c90602090a2005b60405162461bcd60e51b815260206004820152601460248201527315da5d1a191c985dc8141554d10819985a5b195960621b6044820152606490fd5b61032f915060203d6020116101c1576101b38183610938565b82610299565b3461022f57602036600319011261022f576004356001600160a01b0381169081900361022f57610363610988565b80156103ac57600080546001600160a01b03198116831782556001600160a01b0316907f8be0079c531659141344cd1fd0a4f28419497f9722a3daafe3b4186f6b6457e09080a3005b631e4fbdf760e01b600052600060045260246000fd5b3461022f57600036600319011261022f576001546040516001600160a01b039091168152602090f35b3461022f57600036600319011261022f576000546040516001600160a01b039091168152602090f35b3461022f57600036600319011261022f576002546040516001600160a01b039091168152602090f35b3461022f57600036600319011261022f57610456610988565b600080546001600160a01b0319811682556001600160a01b03167f8be0079c531659141344cd1fd0a4f28419497f9722a3daafe3b4186f6b6457e08280a3005b3461022f57600036600319011261022f576020600454604051908152f35b3461022f57600036600319011261022f576020600554604051908152f35b3461022f57602036600319011261022f576004358015610845576005546004548082101561080e5760035491828402928484040361021957670de0b6b3a7640000830292808404670de0b6b3a764000014901517156102195782156107d4578261053b9161092b565b1161078f576001546040516370a0823160e01b815230600482015290602090829060249082906001600160a01b03165afa80156101c857829160009161075a575b5010610715576002546040516323b872dd60e01b81523360048201523060248201526044810184905290602090829060649082906000906001600160a01b03165af19081156101c8576000916106f6575b50156106ba5760015460405163a9059cbb60e01b81523360048201526024810183905290602090829060449082906000906001600160a01b03165af19081156101c85760009161069b575b50156106605761062a8160055461092b565b60055560405191825260208201527f8fafebcaf9d154343dad25669bfa277f4fbacd7ac6b0c4fed522580e040a0f3360403392a2005b60405162461bcd60e51b8152602060048201526013602482015272131415081d1c985b9cd9995c8819985a5b1959606a1b6044820152606490fd5b6106b4915060203d6020116101c1576101b38183610938565b83610618565b60405162461bcd60e51b8152602060048201526014602482015273141554d1081d1c985b9cd9995c8819985a5b195960621b6044820152606490fd5b61070f915060203d6020116101c1576101b38183610938565b836105cd565b60405162461bcd60e51b815260206004820152601a60248201527f4e6f7420656e6f756768204c505420696e20636f6e74726163740000000000006044820152606490fd5b9150506020813d602011610787575b8161077660209383610938565b8101031261022f578190518461057c565b3d9150610769565b60405162461bcd60e51b815260206004820152601860248201527f4578636565647320617661696c61626c6520746f6b656e7300000000000000006044820152606490fd5b60405162461bcd60e51b8152602060048201526012602482015271125b9d985b1a590813141508185b5bdd5b9d60721b6044820152606490fd5b60405162461bcd60e51b815260206004820152600f60248201526e105b1b081d1bdad95b9cc81cdbdb19608a1b6044820152606490fd5b60405162461bcd60e51b81526020600482015260126024820152710416d6f756e74206d757374206265203e20360741b6044820152606490fd5b3461022f57602036600319011261022f5760043561089b610988565b80156108d8577fb38780ddde1f073d91c150de2696f3f7085883648ba21cc5ef01029cb21d191660406003548151908152836020820152a1600355005b60405162461bcd60e51b815260206004820152601060248201526f052617465206d757374206265203e20360841b6044820152606490fd5b3461022f57600036600319011261022f576020906003548152f35b9190820180921161021957565b90601f8019910116810190811067ffffffffffffffff82111761095a57604052565b634e487b7160e01b600052604160045260246000fd5b9081602091031261022f5751801515810361022f5790565b6000546001600160a01b0316330361099c57565b63118cdaa760e01b6000523360045260246000fdfea2646970667358221220293853d25f390f704dd0f11da945432143220d66f15e435a7ec5f9df91f9a91964736f6c634300081e0033",
  "linkReferences": {},
  "deployedLinkReferences": {}
}